S0030000FC
S503016596
S113B0008603B7EB008615B7EB00108EB01910CE8F
S113B010A7B8CEA5B8AEA16E91BF410212A5B8A73C
S113B020B8A5B800200000021D021D020EA7B8A793
S113B030B8834C49D40000B039ECA13606AEA16EF9
S113B0409187455845435554C5B031B04D37106EBE
S113B05091864252414E43C8B041B05CECA431AB3E
S113B060AEA16E9187304252414E43C8B051B07088
S113B07037061083000027E43122AEA16E918628A2
S113B0804C4F4F50A9B064B089CC0001E3E4EDE427
S113B09010A3622DC732643122AEA16E9187282B92
S113B0A04C4F4F50A9B07EB0A9370620DF84284406
S113B0B04FA9B09DB0B637163416AEA16E9181C9B2
S113B0C0B0ADB0C4ECE43606AEA16E9185444947F8
S113B0D049D4B0BEB0D64FE643C030251BC10A25C3
S113B0E00AC1112513C12A220FC007E1412409ED29
S113B0F042CC0001EDC420073342CC0000EDC4AEC5
S113B100A16E91862846494E44A9B0CCB10E342094
S113B110371010AEC4E6841F98C43FE1A42624303F
S113B120013121E684E1A427F6C47FE1A426163088
S113B130051F894FAFC48E0001360636103520AE88
S113B140A16E9130016D802AFCAE848C000026C271
S113B150AFC420E987454E434C4F53C5B103B1609A
S113B16034203706AEC4108EFFFF301F312130016A
S113B170E18427F836206D8426061F21312120140E
S113B18031213001E18427086D8426F41F21200435
S113B1901F21300136303520AEA16E9184454D49D2
S113B1A0D4B154B4F7C198B574B652B440B30D8356
S113B1B04B45D9B19CB4F7C16DB30D893F54455289
S113B1C04D494E41CCB1AFB4F7C17FB30D8243D2E8
S113B1D0B1BBB4F7B037000DC198B037000AC198BD
S113B1E0B30D85434D4F56C5B1CDB1EC3420370670
S113B1F0E3C437303606A6A0A780ACC42DF833428A
S113B2003520AEA16E918255AAB1E2B20DECC4ED27
S113B2107EEC42ED7C6FC46F41A67DE67F3DED423E
S113B220A67CE67F3DE341ED41A67DE67E3DE3411C
S113B230ED4124026CC4A67CE67E3DE3C4EDC4AEBD
S113B240A16E918255AFB206B24AECC410830000DD
S113B250260BCCFFFF3346360636062027862036DB
S113B26002EC434F5F684669456944694359491094
S113B270A3412504A3416C466AC426E9AE4533477D
S113B28036063610AEA16E9183414EC4B243B290DD
S113B2903706A4C4E441EDC4AEA16E91824FD2B28C
S113B2A088B2A33706AAC4EA41EDC4AEA16E918365
S113B2B0584FD2B29CB2B73706A8C4E841EDC4AE29
S113B2C0A16E91835350C0B2AFB2CB1F303606AEDD
S113B2D0A16E91835350A1B2C3B2DBBEB02D300630
S113B2E0EE84AEA16E91835250C0B2D3B2EE36401A
S113B2F0AEA16E91835250A1B2E6B2FCBEB02D3025
S113B3000810EE84AEA16E91823BD3B2F4B30F3534
S113B31020AEA16E91854C454156C5B308B31FECD0
S113B320E4ED62AEA16E94823ED2B315B32E37061D
S113B3303406AEA16E918252BEB327B33D350636B4
S113B34006AEA16E9181D2B336B0C48230BDB3458E
S113B350B35237068E0001108300002702301F36D7
S113B36010AEA16E918230BCB34BB36C37068E0025
S113B37001108300002D02301F3610AEA16E9181A2
S113B380ABB365B3853706E3C4EDC4AEA16E918259
S113B39044ABB37FB3964FC6041F31A603A907A7D6
S113B3A007301F5A26F53344AEA16E91854D494EA0
S113B3B055D3B38FB3B64F5FA3C4EDC4AEA16E91A2
S113B3C086444D494E55D3B3ACB3CB63C463416398
S113B3D0426043260A6C4226066C4126026CC4AEC7
S113B3E0A16E91844F5645D2B3C0B3ECEC423606FD
S113B3F0AEA16E918444524FD0B3E3B3FD3342AE59
S113B400A16E9184535741D0B3F4B40C370637106E
S113B41036063610AEA16E91834455D0B403B420E1
S113B420ECC43606AEA16E9184324455D0B418B43F
S113B43031ECC4AE423616AEA16E91822BA1B42873
S113B440B44237103706E384ED84AEA16E9186547E
S113B4504F47474CC5B43BB4593716E884E784AE2C
S113B460A16E9181C0B44EB469ECD4EDC4AEA16EAA
S113B470918243C0B463B478E6D44FEDC4AEA16EF8
S113B480918232C0B471B4883710EC023606EC8471
S113B4903606AEA16E9181A1B481B49C37103706F3
S113B4A0ED84AEA16E918243A1B496B4AD3710374A
S113B4B006E784AEA16E91864953363830B9B4A6F6
S113B4C0B4C21FC03606AEA16E918232A1B4B7B425
S113B4D0D137103706ED843706ED02AEA16E91C167
S113B4E0BAB4CAB4F7B89FB85AB685B467B677B4D5
S113B4F09ABD50B924B97734203184AEA16E91C17C
S113B500BBB4DFB4F7B8C9B900B30DB939B916B3D0
S113B5100D844E4F4FD0B4FFB4F7B30D88434F4E54
S113B5205354414ED4B511B4F7BD50B939B718B915
S113B53077EC843606AEA16E918856415249414259
S113B5404CC5B51CB4F7B527B9773610AEA16E91CA
S113B55084555345D2B539B4F7B527B977FCB02D26
S113B560E3843606AEA16E9181B0B550B5310000CA
S113B57081B1B568B531000181B2B570B531000251
S113B58081B3B578B53100038242CCB580B53100C2
S113B5902083432FCCB588B53100408546495253AA
S113B5A0D4B591B531A7F8854C494D49D4B59BB56F
S113B5B031A1B885422F4255C6B5A7B531040085DF
S113B5C0422F5343D2B5B3B5310001872B4F5249B3
S113B5D04749CEB5BFB4F7B037B000B383B30D82DB
S113B5E053B0B5CBB55D00068252B0B5DFB55D0092
S113B5F008835449C2B5E8B55D000A8557494454E7
S113B600C8B5F1B55D000C875741524E494EC7B5D8
S113B610FBB55D000E8546454E43C5B607B55D00D6
S113B620108244D0B615B55D001288564F432D4C98
S113B630494ECBB621B55D001483424CCBB62AB536
S113B6405D00168249CEB639B55D0018834F55D4D6
S113B650B643B55D001A835343D2B64CB55D001CA6
S113B660864F46465345D4B656B55D001E87434FB4
S113B6704E544558D4B660B55D00208743555252A8
S113B680454ED4B66DB55D00228553544154C5B6BC
S113B6907BB55D002484424153C5B689B55D00265F
S113B6A0834450CCB695B55D002883464CC4B6A0FF
S113B6B0B55D002A834353D0B6AAB55D002C8252EF
S113B6C0A3B6B4B55D002E83484CC4B6BEB55D00C8
S113B6D0308231ABB6C7B6D8ECC4C30001EDC4AEFA
S113B6E0A16E918232ABB6D1B6EAECC4C30002EDCE
S113B6F0C4AEA16E9184484552C5B6E3B4F7B626EC
S113B700B467B30D85414C4C4FD4B6F5B4F7B626A7
S113B710B440B30D81ACB704B4F7B6FCB49AB57CAD
S113B720B70CB30D8243ACB714B4F7B6FCB4ABB5E5
S113B73074B70CB30D81ADB724B73BEC42A3C4334B
S113B74042EDC4AEA16E9181BDB735B4F7B739B33C
S113B75050B30D81BCB747B75937068E000010A30C
S113B760C42F023001AFC4AEA16E918255BCB75351
S113B770B4F7B42FB2B5B36AB06E000CB3FBB36ABE
S113B780B350B05A0006B739B36AB30D81BEB76B74
S113B790B4F7B40AB757B30D83524FD4B78CB7A0DC
S113B7A034203736361636203520AEA16E918553B7
S113B7B0504143C5B798B4F7B58DB1A3B30D842DEB
S113B7C04455D0B7AEB4F7B41EB06E0004B41EB383
S113B7D00D8854524156455253C5B7BEB4F7B40A06
S113B7E0B3EAB383B037007FB3EAB476B757B06E29
S113B7F0FFF0B40AB3FBB30D864C41544553D4B7A0
S113B800D1B4F7B685B467B467B30D834C46C1B7FA
S113B810F8B4F7B0370004B739B30D834346C1B861
S113B8200BB4F7B57CB739B30D834E46C1B81BB41E
S113B830F7B0370005B739B037FFFFB7DCB30D8376
S113B8405046C1B829B4F7B574B7DCB0370005B3B6
S113B85083B30D84214353D0B83FB4F7B2C9B6BA09
S113B860B49AB30D863F4552524FD2B853B4F7B48D
S113B8700AB06E0008BCE2B05A0004B3FBB30D85F5
S113B8803F434F4DD0B864B4F7B691B467B350B0EA
S113B890370011B86DB30D8551455845C3B87FB411
S113B8A0F7B691B467B0370012B86DB30D863F5048
S113B8B0414952D3B897B4F7B739B0370013B86DCC
S113B8C0B30D843F4353D0B8ADB4F7B2C9B6BAB4DC
S113B8D067B739B0370014B86DB30D883F4C4F418A
S113B8E044494EC7B8C2B4F7B63FB467B350B03793
S113B8F00016B86DB30D87434F4D50494CC5B8DBA6
S113B900B4F7B887B33BB41EB6E8B32CB467B71822
S113B910B30DC1DBB8F6B4F7B56CB691B49AB30DF8
S113B92081DDB912B4F7B03700C0B691B49AB30D43
S113B93086534D554447C5B920B4F7B801B0370014
S113B94020B457B30D834845D8B930B4F7B03700A5
S113B95010B69CB49AB30D87444543494D41CCB9C4
S113B96045B4F7B037000AB69CB49AB30D87283BA8
S113B970434F4445A9B957B4F7B33BB801B845B8E8
S113B98021B49AB30DC53B434F44C5B96DB4F7B860
S113B990C9B900B977B916B30D873C4255494C442F
S113B9A0D3B985B4F7B56CB527B30D85444F45536A
S113B9B0BEB999B4F7B33BB801B845B49AB9773472
S113B9C02010AE813610AEA16E9185434F554ED4F2
S113B9D0B9ABB4F7B41EB6D6B40AB476B30D845476
S113B9E05950C5B9CAB4F7B7C5B06E0018B3EAB3B5
S113B9F083B40AB0B4B0C2B476B1A3B087FFF8B0D0
S113BA005A0004B3FBB30D892D545241494C494E9D
S113BA10C7B9DEB4F7B41EB56CB0B4B3EAB3EAB3D5
S113BA2083B574B739B476B58DB739B06E0008B341
S113BA301DB05A0006B574B739B087FFE0B30D8462
S113BA40282E22A9BA07B4F7B349B9D2B41EB6D680
S113BA50B33BB383B32CB9E5B30DC22EA2BA3FB442
S113BA60F7B0370022B691B467B06E0014B900BACB
S113BA7046BBC6B6FCB476B6D6B70CB05A000ABB01
S113BA80C6B6FCB9D2B9E5B30D864558504543D482
S113BA90BA5AB4F7B3EAB383B3EAB0B4B1B5B41ED7
S113BAA0B0370008B74BB06E002AB3FBB41EB0C267
S113BAB0B74BB41EB33BB57CB739B383B32CB06E6C
S113BAC0000AB0370007B05A0006B0370008B05A71
S113BAD00028B41EB037000DB74BB06E000EB31D76
S113BAE0B3FBB58DB56CB05A0004B41EB0C2B4AB90
S113BAF0B56CB0C2B6D6B49AB1A3B087FFA0B3FBFD
S113BB00B30D8551554552D9BA89B4F7B5F7B46721
S113BB10B0370050BA92B56CB648B49AB30DC18030
S113BB20BB02B4F7B63FB467B06E002AB574B63F33
S113BB30B440B56CB648B49AB63FB467B5C7B574EB
S113BB40B739B28EB350B06E0008B89FB33BB3FBA5
S113BB50B05A0006B33BB3FBB30D8446494CCCBB8F
S113BB601EBB6334203736E7A0301F26FA3520AEDB
S113BB70A16E918545524153C5BB5AB4F7B56CBB10
S113BB8061B30D86424C414E4BD3BB73B4F7B58DB4
S113BB90BB61B30D84484F4CC4BB83B4F7B037FFCB
S113BBA0FFB6CDB440B6CDB467B4ABB30D8350414A
S113BBB0C4BB94B4F7B6FCB0370044B383B30D846C
S113BBC0574F52C4BBADB4F7B5F7B467B648B467C2
S113BBD0B383B40AB15EB6FCB0370022BB8CB6485E
S113BBE0B440B3EAB739B32CB349B6FCB4ABB383AE
S113BBF0B6FCB6D6B33BB1EAB30D88284E554D42D8
S113BC004552A9BBBFB4F7B6D6B41EB32CB476B6AE
S113BC109CB467B0D4B06E002CB40AB69CB467B2BE
S113BC200BB3FBB79EB69CB467B20BB394B6A6B481
S113BC3067B6D6B06E0008B574B6A6B440B33BB0D0
S113BC405AFFC6B33BB30D864E554D4245D2BBFA9F
S113BC50B4F7B56CB56CB79EB41EB6D6B476B0372F
S113BC60002DB74BB41EB32CB383B037FFFFB6A679
S113BC70B49ABC05B41EB476B58DB739B06E00164F
S113BC80B41EB476B037002EB739B56CB86DB56C48
S113BC90B05AFFDCB3FBB33BB06E0004B3C9B30DC1
S113BCA0852D46494EC4BC47B4F7B58DBBC6B6FC1A
S113BCB0B677B467B467B10CB41EB350B06E000A63
S113BCC0B3FBB6FCB801B10CB30D872841424F5207
S113BCD054A9BCA0B4F7BF1BB30D854552524FD233
S113BCE0BCCAB4F7B611B467B36AB06E0004BCD46E
S113BCF0B6FCB9D2B9E5BA46023F20C133B2D9B6CF
S113BD003FB467B7C5B06E0008B648B467B40ABE9E
S113BD10ECB30D834944AEBCDAB4F7BBB3B037001F
S113BD2020B037005FBB61B41EB845B811B3EAB7A1
S113BD3039BBB3B40AB1EABBB3B9D2B037001FB24E
S113BD408EB9E5B7B6B30D864352454154C5BD130C
S113BD50B4F7BCA8B06E0010B3FBB82FBD19B03750
S113BD600004C133B7B6B6FCB41EB476B603B467E8
S113BD70C045B6D6B70CB41EB03700A0B457B6FC55
S113BD80B574B739B0370080B457B801B718B68561
S113BD90B467B49AB6FCB6E8B718B30DC95B434FA1
S113BDA04D50494C45DDBD47B4F7BCA8B350B56C04
S113BDB0B86DB3FBB821B718B30DC74C49544552FD
S113BDC041CCBD9CB4F7B691B467B06E0008B9001D
S113BDD0B037B718B30DC8444C4954455241CCBD93
S113BDE0BAB4F7B691B467B06E0008B40ABDC4BD66
S113BDF0C4B30D863F53544143CBBDD6B4F7B2C947
S113BE00B5E4B467B40AB770B574B86DB2C9B6FC1A
S113BE10B0370080B383B770B0370007B86DB30D87
S113BE2089494E544552505245D4BDF3B4F7BCA889
S113BE30B06E001EB691B467B757B06E000AB82151
S113BE40B718B05A0006B821B04BBDFCB05A001C5C
S113BE50B6FCBC50B6A6B467B6D6B06E0008BDE159
S113BE60B05A0006B3FBBDC4BDFCB05AFFC2B30D4B
S113BE7089494D4D4544494154C5BE20B4F7B801E4
S113BE80B0370040B457B30D8A564F434142554C26
S113BE904152D9BE70B4F7B9A3B03781A0B718B670
S113BEA085B467B821B718B6FCB635B467B718B609
S113BEB035B49AB9B3B6E8B677B49AB30D8B4445A2
S113BEC046494E4954494F4ED3BE88B4F7B677B469
S113BED067B685B49AB30DC1A8BEBDB4F7B0370038
S113BEE029BBC6B30D84515549D4BED7B4F7B56C3C
S113BEF0B63FB49AB916B2FAB1D2BB0ABE2CB69107
S113BF00B467B350B06E0007BA46026F6BB05AFF05
S113BF10E7B30D8541424F52D4BEE5B4F7B2D9B967
S113BF2061BDFCB1D20208BECBBEECB30D84574157
S113BF3052CDBF13B4F7BF1BB30D84434F4CC4BFE2
S113BF402DB4F7B037B01DB037B02DB467B037009B
S113BF5006B383B0370010B1EAB2D9B037C62AB0FD
S113BF60370200B037001DB1EAB037B01BB467B078
S113BF7037020EB49AB1D2BA460E6D6963726F4637
S113BF804F52544820312E30B1D2BA4615666F72E2
S113BF90205353542D3638303920534243205632DF
S113BFA02E31B1D2BA461C44696374696F6E6172F2
S113BFB07920737061636520617661696C61626C7C
S113BFC0653A20B2C9B626B467B739C424BA46055F
S113BFD06279746573B1D2C4E5BA460C43505520F6
S113BFE06465746563746564B1D2BF1BB30D845317
S113BFF02D3EC4BF3AB4F7B41EB36AB3B4B30D82D2
S113C0002BADBFEEB4F7B36AB06E0004B3B4B30D96
S113C01083442BADBFFFB4F7B36AB06E0004B3C959
S113C020B30D834142D3C010B4F7B41EC004B30DA2
S113C03084444142D3C022B4F7B41EC016B30D8366
S113C0404D49CEC030B4F7B42FB790B06E0004B4ED
S113C0500AB3FBB30D834D41D8C03FB4F7B42FB737
S113C06057B06E0004B40AB3FBB30D824DAAC05599
S113C070B4F7B42FB2B5B32CC028B40AC028B20B9D
S113C080B33BC016B30D824DAFC06BB4F7B3EAB384
S113C0902CB32CC037B349C028B248B33BB349B220
S113C0A0B5C004B40AB33BC004B40AB30D81AAC03A
S113C0B086B4F7C070B3FBB30D842F4D4FC4C0AD2D
S113C0C0B4F7B32CBFF5B33BC08BB30D81AFC0B98C
S113C0D0B4F7C0C0B40AB3FBB30D834D4FC4C0CC96
S113C0E0B4F7C0C0B3FBB30D852A2F4D4FC4C0DADB
S113C0F0B4F7B32CC070B33BC08BB30D822AAFC06E
S113C100E8B4F7C0F0B40AB3FBB30D854D2F4D4F1F
S113C110C4C0FCB4F7B32CB56CB349B248B33BB458
S113C1200AB32CB248B33BB30D874D455353414733
S113C130C5C10BB4F7B611B467B06E0025B7C5B06E
S113C1406E001BB0370004B669B467B5C7C0D0B77A
S113C15039BA460620444C494E45B7B6B05A000D8C
S113C160BA46064D5347202320C40BB30DC16FB606
S113C170EB004724FAF6EB014F3606AEA16E91C1EF
S113C18081B6EB00472408F6EB014F36062005CCB8
S113C19000003606AEA16E91C19A3706C47FB6EB95
S113C1A000474724F9F7EB01AEA16E91C1A7C1295D
S113C1B0B4F7BCA8B350B56CB86DB3FBBDC4B30D34
S113C1C086464F524745D4C1ACB4F7B685B467B67A
S113C1D077B467B739B0370018B86DC1B0B41EB6BC
S113C1E01DB467B757B0370015B86DB41EB82FB675
S113C1F026B49AB811B467B677B467B49AB30D8409
S113C200424143CBC1C0B4F7B6FCB739B718B30D3C
S113C210C542454749CEC1FFB4F7B887B6FCB574EB
S113C220B30DC5454E4449C6C210B4F7B887B57CB2
S113C230B8B6B6FCB3EAB739B40AB49AB30DC45469
S113C2404845CEC222B4F7C22AB30DC244CFC23E7F
S113C250B4F7B900B0B4B6FCB584B30DC44C4F4FB9
S113C260D0C24BB4F7B584B8B6B900B087C206B330
S113C2700DC52B4C4F4FD0C25CB4F7B584B8B6B9DA
S113C28000B0A7C206B30DC5554E5449CCC271B413
S113C290F7B574B8B6B900B06EC206B30DC3454E57
S113C2A0C4C287B4F7C28FB30DC541474149CEC25A
S113C2B09DB4F7B574B8B6B900B05AC206B30DC68A
S113C2C05245504541D4C2A9B4F7B32CB32CC2B1E2
S113C2D0B33BB33BB57CB739C22AB30DC249C6C21E
S113C2E0BFB4F7B900B06EB6FCB56CB718B57CB383
S113C2F00DC4454C53C5C2DCB4F7B57CB8B6B9001F
S113C300B05AB6FCB56CB718B40AB57CC22AB57C71
S113C310B30DC55748494CC5C2F1B4F7C2E1B6E8FC
S113C320B30D865350414345D3C312B4F7B56CC023
S113C3305BB7C5B06E000CB56CB0B4B7B6B087FFD0
S113C340FCB30D823CA3C322B4F7BBB3B6CDB49AFD
S113C350B30D8223BEC343B4F7B3FBB3FBB6CDB472
S113C36067BBB3B3EAB739B30D84534947CEC3525D
S113C370B4F7B79EB36AB06E0008B037002DBB9B0C
S113C380B30D81A3C369B4F7B69CB467C113B79E58
S113C390B0370009B3EAB757B06E0008B0370007EA
S113C3A0B383B0370030B383BB9BB30D8223D3C3B5
S113C3B082B4F7C386B3EAB3EAB2A1B350B06EFF56
S113C3C0F4B30D83442ED2C3ACB4F7B32CB40AB384
S113C3D0EAC037C348C3B1C370C357B33BB3EAB76A
S113C3E039C32BB9E5B30D822ED2C3C3B4F7B32C32
S113C3F0BFF5B33BC3C9B30D8244AEC3E7B4F7B5CD
S113C4006CC3C9B7B6B30D81AEC3F8B4F7BFF5C3F7
S113C410FDB30D81BFC407B4F7B467C40BB30D8279
S113C42055AEC413B4F7B56CC3FDB30D85564C4972
S113C43053D4C41FB4F7B69CB467B32CB94BB1D270
S113C440B1D2B0370000B652B49AB677B467B467C5
S113C450B41EB41EB0370000C348C386C386C38667
S113C460C386C357B9E5B41EB6D6B476B037007FD9
S113C470B28EB06E000AB7B6BD19B05A000CBA46F7
S113C48005206E756C6CB3FBB652B467B037003CD4
S113C490B790B06E0010B1D2B0370000B652B49A63
S113C4A0B05A0012B0370014B652B467B3EAC0E011
S113C4B0B739C32BB845B811B467B41EB350B1C76C
S113C4C0B41EB06E0006B1B5B3FBB2A1B06EFF826C
S113C4D0B3FBB1D2B1D2B33BB69CB49AB30D842EA4
S113C4E04350D5C42CB4F7B4C0B06E000EBA4605A0
S113C4F03638303920B05A000ABA46053633303956
S113C50020B30D8444554DD0C4DEB4F7B69CB46753
S113C510B32CB94BB1D2B1D2B0370005C32BB0376D
S113C5200010B0370000B0B4B0C2B0370003C3ECA1
S113C530B087FFF6B0370002C32BB0370010B03716
S113C5400000B0B4B0C2B0370000C348C386C357BC
S113C550B9E5B087FFF0B1D2B3EAB383B40AB41E2D
S113C560B037000FB28EB2B5B0B4B1D2B0C2B037EA
S113C5700000B0370004C3C9B7B6B0C2B03700106A
S113C580B383B0C2B42FB0B4B0C2B476B7B6B037C8
S113C5900000C348C386C386C357B9E5B087FFEA22
S113C5A0B0370002C32BB0B4B0C2B476B41EB037F7
S113C5B00020B757B3EAB037007EB790B2A1B06E8F
S113C5C00008B3FBB037002EB1A3B087FFDCB0374F
S113C5D00010B0A7FF96B1D2B33BB69CB49AB30D8A
S113C5E083522FD7C503C5E83420EC421044545479
S113C5F05454CA80F7EF00370610830000271FEC5D
S113C600C4104410448403C4E01F02EC421F01C35D
S113C6100400EDC4A6A0A780ACC423F820004FB743
S113C620EF0033443520AEA16E91C5464F5254C835
S113C630C5E0B9BFBEB581A00212000084544153C5
S10AC640CB0200B4F7B30DB7
S9030000FC
